{
  "_format": "hh-sol-artifact-1",
  "contractName": "TournamentDetails",
  "sourceName": "contracts/TournamentScores.sol",
  "abi": [
    {
      "anonymous": false,
      "inputs": [
        {
          "indexed": false,
          "internalType": "string",
          "name": "tournamentName",
          "type": "string"
        },
        {
          "components": [
            {
              "internalType": "string",
              "name": "name",
              "type": "string"
            },
            {
              "internalType": "uint256",
              "name": "score",
              "type": "uint256"
            },
            {
              "internalType": "uint256",
              "name": "rank",
              "type": "uint256"
            }
          ],
          "indexed": false,
          "internalType": "struct TournamentDetails.Player[]",
          "name": "players",
          "type": "tuple[]"
        },
        {
          "indexed": false,
          "internalType": "uint256",
          "name": "timestamp",
          "type": "uint256"
        }
      ],
      "name": "TournamentAdded",
      "type": "event"
    },
    {
      "inputs": [
        {
          "internalType": "string",
          "name": "name",
          "type": "string"
        },
        {
          "internalType": "string[4]",
          "name": "playerNames",
          "type": "string[4]"
        },
        {
          "internalType": "uint256[4]",
          "name": "playerScores",
          "type": "uint256[4]"
        },
        {
          "internalType": "uint256[4]",
          "name": "playerRanks",
          "type": "uint256[4]"
        }
      ],
      "name": "addTournament",
      "outputs": [],
      "stateMutability": "nonpayable",
      "type": "function"
    },
    {
      "inputs": [],
      "name": "getTournaments",
      "outputs": [
        {
          "components": [
            {
              "internalType": "string",
              "name": "name",
              "type": "string"
            },
            {
              "components": [
                {
                  "internalType": "string",
                  "name": "name",
                  "type": "string"
                },
                {
                  "internalType": "uint256",
                  "name": "score",
                  "type": "uint256"
                },
                {
                  "internalType": "uint256",
                  "name": "rank",
                  "type": "uint256"
                }
              ],
              "internalType": "struct TournamentDetails.Player[]",
              "name": "players",
              "type": "tuple[]"
            },
            {
              "internalType": "uint256",
              "name": "timestamp",
              "type": "uint256"
            }
          ],
          "internalType": "struct TournamentDetails.Tournament[]",
          "name": "",
          "type": "tuple[]"
        }
      ],
      "stateMutability": "view",
      "type": "function"
    },
    {
      "inputs": [
        {
          "internalType": "uint256",
          "name": "",
          "type": "uint256"
        }
      ],
      "name": "tournaments",
      "outputs": [
        {
          "internalType": "string",
          "name": "name",
          "type": "string"
        },
        {
          "internalType": "uint256",
          "name": "timestamp",
          "type": "uint256"
        }
      ],
      "stateMutability": "view",
      "type": "function"
    }
  ],
  "bytecode": "0x608060405234801561001057600080fd5b50611000806100206000396000f3fe608060405234801561001057600080fd5b50600436106100415760003560e01c80635ed3e8e7146100465780637503e1b714610062578063f7f20cb314610093575b600080fd5b610060600480360381019061005b9190610772565b6100b1565b005b61007c60048036038101906100779190610806565b610291565b60405161008a929190610c4e565b60405180910390f35b61009b61034d565b6040516100a89190610be7565b60405180910390f35b6000806001816001815401808255809150500390600052602060002090600302019050848160000190805190602001906100ec92919061054d565b5042816002018190555060005b60048110156102475781600101604051806060016040528087846004811061014a577f4e487b7100000000000000000000000000000000000000000000000000000000600052603260045260246000fd5b6020020151815260200186846004811061018d577f4e487b7100000000000000000000000000000000000000000000000000000000600052603260045260246000fd5b602002015181526020018584600481106101d0577f4e487b7100000000000000000000000000000000000000000000000000000000600052603260045260246000fd5b60200201518152509080600181540180825580915050600190039060005260206000209060030201600090919091909150600082015181600001908051906020019061021d92919061054d565b5060208201518160010155604082015181600201555050808061023f90610ebf565b9150506100f9565b507fbd19f115b2d0c3acf88d793cbbc4c8ba72000b8d4e80a9ce0d9a4196f40d96838582600101836002015460405161028293929190610c09565b60405180910390a15050505050565b600081815481106102a157600080fd5b90600052602060002090600302016000915090508060000180546102c490610e73565b80601f01602080910402602001604051908101604052809291908181526020018280546102f090610e73565b801561033d5780601f106103125761010080835404028352916020019161033d565b820191906000526020600020905b81548152906001019060200180831161032057829003601f168201915b5050505050908060020154905082565b60606000805480602002602001604051908101604052809291908181526020016000905b8282101561054457838290600052602060002090600302016040518060600160405290816000820180546103a490610e73565b80601f01602080910402602001604051908101604052809291908181526020018280546103d090610e73565b801561041d5780601f106103f25761010080835404028352916020019161041d565b820191906000526020600020905b81548152906001019060200180831161040057829003601f168201915b5050505050815260200160018201805480602002602001604051908101604052809291908181526020016000905b82821015610523578382906000526020600020906003020160405180606001604052908160008201805461047e90610e73565b80601f01602080910402602001604051908101604052809291908181526020018280546104aa90610e73565b80156104f75780601f106104cc576101008083540402835291602001916104f7565b820191906000526020600020905b8154815290600101906020018083116104da57829003601f168201915b50505050508152602001600182015481526020016002820154815250508152602001906001019061044b565b50505050815260200160028201548152505081526020019060010190610371565b50505050905090565b82805461055990610e73565b90600052602060002090601f01602090048101928261057b57600085556105c2565b82601f1061059457805160ff19168380011785556105c2565b828001600101855582156105c2579182015b828111156105c15782518255916020019190600101906105a6565b5b5090506105cf91906105d3565b5090565b5b808211156105ec5760008160009055506001016105d4565b5090565b60006106036105fe84610caf565b610c7e565b9050808260005b8581101561063a57813585016106208882610733565b84526020840193506020830192505060018101905061060a565b5050509392505050565b600061065761065284610cd5565b610c7e565b9050808285602086028201111561066d57600080fd5b60005b8581101561069d5781610683888261075d565b845260208401935060208301925050600181019050610670565b5050509392505050565b60006106ba6106b584610cfb565b610c7e565b9050828152602081018484840111156106d257600080fd5b6106dd848285610e31565b509392505050565b600082601f8301126106f657600080fd5b60046107038482856105f0565b91505092915050565b600082601f83011261071d57600080fd5b600461072a848285610644565b91505092915050565b600082601f83011261074457600080fd5b81356107548482602086016106a7565b91505092915050565b60008135905061076c81610fb3565b92915050565b600080600080610140858703121561078957600080fd5b600085013567ffffffffffffffff8111156107a357600080fd5b6107af87828801610733565b945050602085013567ffffffffffffffff8111156107cc57600080fd5b6107d8878288016106e5565b93505060406107e98782880161070c565b92505060c06107fa8782880161070c565b91505092959194509250565b60006020828403121561081857600080fd5b60006108268482850161075d565b91505092915050565b600061083b8383610abb565b905092915050565b600061084f8383610b0b565b905092915050565b60006108638383610b72565b905092915050565b600061087682610d75565b6108808185610dc8565b93508360208202850161089285610d2b565b8060005b858110156108ce57848403895281516108af858261082f565b94506108ba83610da1565b925060208a01995050600181019050610896565b50829750879550505050505092915050565b60006108eb82610d80565b6108f58185610dd9565b93508360208202850161090785610d3b565b8060005b85811015610942578484038952816109238582610843565b945061092e83610dae565b925060208a0199505060018101905061090b565b50829750879550505050505092915050565b600061095f82610d8b565b6109698185610dea565b93508360208202850161097b85610d50565b8060005b858110156109b757848403895281516109988582610857565b94506109a383610dbb565b925060208a0199505060018101905061097f565b50829750879550505050505092915050565b60006109d482610d96565b6109de8185610dfb565b93506109ee818560208601610e40565b6109f781610f95565b840191505092915050565b6000610a0d82610d96565b610a178185610e0c565b9350610a27818560208601610e40565b610a3081610f95565b840191505092915050565b60008154610a4881610e73565b610a528186610dfb565b94506001821660008114610a6d5760018114610a7f57610ab2565b60ff1983168652602086019350610ab2565b610a8885610d60565b60005b83811015610aaa57815481890152600182019150602081019050610a8b565b808801955050505b50505092915050565b60006060830160008301518482036000860152610ad882826109c9565b9150506020830151610aed6020860182610bc9565b506040830151610b006040860182610bc9565b508091505092915050565b60006060830160008084018583036000870152610b288382610a3b565b92505060018401549050610b3b81610ea5565b610b486020870182610bc9565b5060028401549050610b5981610ea5565b610b666040870182610bc9565b50819250505092915050565b60006060830160008301518482036000860152610b8f82826109c9565b91505060208301518482036020860152610ba9828261086b565b9150506040830151610bbe6040860182610bc9565b508091505092915050565b610bd281610e27565b82525050565b610be181610e27565b82525050565b60006020820190508181036000830152610c018184610954565b905092915050565b60006060820190508181036000830152610c238186610a02565b90508181036020830152610c3781856108e0565b9050610c466040830184610bd8565b949350505050565b60006040820190508181036000830152610c688185610a02565b9050610c776020830184610bd8565b9392505050565b6000604051905081810181811067ffffffffffffffff82111715610ca557610ca4610f66565b5b8060405250919050565b600067ffffffffffffffff821115610cca57610cc9610f66565b5b602082029050919050565b600067ffffffffffffffff821115610cf057610cef610f66565b5b602082029050919050565b600067ffffffffffffffff821115610d1657610d15610f66565b5b601f19601f8301169050602081019050919050565b6000819050602082019050919050565b60008190508160005260206000209050919050565b6000819050602082019050919050565b60008190508160005260206000209050919050565b600081519050919050565b600081549050919050565b600081519050919050565b600081519050919050565b6000602082019050919050565b6000600382019050919050565b6000602082019050919050565b600082825260208201905092915050565b600082825260208201905092915050565b600082825260208201905092915050565b600082825260208201905092915050565b600082825260208201905092915050565b6000819050919050565b6000819050919050565b82818337600083830152505050565b60005b83811015610e5e578082015181840152602081019050610e43565b83811115610e6d576000848401525b50505050565b60006002820490506001821680610e8b57607f821691505b60208210811415610e9f57610e9e610f37565b5b50919050565b6000610eb8610eb383610fa6565b610e1d565b9050919050565b6000610eca82610e27565b91507fffffffffffffffffffffffffffffffffffffffffffffffffffffffffffffffff821415610efd57610efc610f08565b5b600182019050919050565b7f4e487b7100000000000000000000000000000000000000000000000000000000600052601160045260246000fd5b7f4e487b7100000000000000000000000000000000000000000000000000000000600052602260045260246000fd5b7f4e487b7100000000000000000000000000000000000000000000000000000000600052604160045260246000fd5b6000601f19601f8301169050919050565b60008160001c9050919050565b610fbc81610e27565b8114610fc757600080fd5b5056fea2646970667358221220bf35d92ba994104e9ff35b6ac7c68444415d7928c1e8a1d85102afba3ef9127864736f6c63430008000033",
  "linkReferences": {},
  "deployedLinkReferences": {}
}